:100000000C942A000C9447000C9447000C94470071
:100010000C9447000C9447000C9447000C94470044
:100020000C9447000C9447000C9447000C94470034
:100030000C9447000C9447000C9447000C94470024
:100040000C9447000C9447000C9447000C94470014
:100050000C94470011241FBECFE5D8E0DEBFCDBF12
:1000600010E0A0E6B0E0E2E4F4E302C005900D92F7
:10007000A837B107D9F710E0A8E7B0E001C01D929A
:10008000A738B107E1F70E949A190C941F1A0C9433
:100090000000EF92FF920F931F937B018C0120E0F1
:1000A00030E040E05FE40E94490388238CF0C801FF
:1000B000B70120E030E040E05FE40E94C1010E940F
:1000C000A9039B01AC01205030404040504806C07D
:1000D000C801B7010E94A9039B01AC01B901CA0183
:1000E0001F910F91FF90EF900895A0E0B0E0EBE733
:1000F000F0E00C94E819DC012B01FA019C9192309C
:1001000008F439C1EB018881823008F433C194309E
:1001100069F4843009F02FC111969C91119789815F
:10012000981709F428C1A0E6B0E025C1843009F48D
:1001300021C18230A9F4923009F01DC19A01AD01AC
:1001400088E0EA010990AE01E90109929E0181501F
:10015000C1F7E201898111969C918923818308C1AD
:10016000923009F407C112962D903C901397EB0141
:100170008A819B811496AD90BD90CD90DC901797AD
:10018000EC80FD800E811F819101281B390BB90184
:1001900037FF04C066277727621B730B6032710537
:1001A0000CF061C0121613066CF537014801062EDB
:1001B00004C096948794779467940A94D2F721E0C8
:1001C00030E040E050E004C0220F331F441F551FB1
:1001D0006A95D2F721503040404050402E213F21B7
:1001E00040235123211531054105510521F021E01E
:1001F00030E040E050E079018A01E628F72808293C
:1002000019293CC0232BD1F1260E371E350146019A
:10021000062E04C096948794779467940A94D2F734
:1002200021E030E040E050E004C0220F331F441FC3
:10023000551F6A95D2F721503040404050402A2146
:100240003B214C215D21211531054105510521F04E
:1002500021E030E040E050E059016A01A628B728CB
:10026000C828D9280BC0821593052CF01C01AA249C
:10027000BB24650103C0EE24FF24870111969C91E5
:10028000D20111968C91981709F445C0992339F041
:10029000A80197012A193B094C095D0906C0A6016E
:1002A00095012E193F09400B510B57FD08C01182D3
:1002B0003382228224833583468357831DC081E0A5
:1002C00081833382228288279927DC01821B930B4A
:1002D000A40BB50B84839583A683B7830DC0220F2F
:1002E000331F441F551F24833583468357838281E0
:1002F000938101979383828324813581468157813D
:10030000DA01C9010197A109B1098F5F9F4FAF4F72
:10031000BF4328F30BC0918333822282EA0CFB1C7B
:100320000C1D1D1DE482F5820683178383E0808304
:10033000248135814681578157FF1AC0C901AA27F8
:1003400097FDA095BA2F81709070A070B0705695EF
:10035000479537952795822B932BA42BB52B848318
:100360009583A683B7838281938101969383828349
:10037000DF0101C0D201CD01CDB7DEB7E2E10C94BF
:10038000041AA0E2B0E0E7ECF1E00C94F419698300
:100390007A838B839C832D833E834F835887E9E048
:1003A000EE2EF12CEC0EFD1ECE010196B7010E943F
:1003B000D2048E010F5E1F4FCE010596B8010E9438
:1003C000D2048A8991E089278A8BC701B801AE01DE
:1003D000475E5F4F0E9475000E94FD03A096E6E015
:1003E0000C94101AA0E2B0E0E8EFF1E00C94F419DC
:1003F00069837A838B839C832D833E834F835887C5
:10040000F9E0EF2EF12CEC0EFD1ECE010196B701A6
:100410000E94D2048E010F5E1F4FCE010596B801D7
:100420000E94D204C701B801AE01475E5F4F0E942F
:1004300075000E94FD03A096E6E00C94101AA0E25D
:10044000B0E0E5E2F2E00C94E81969837A838B83EB
:100450009C832D833E834F835887CE010196BE0136
:10046000675F7F4F0E94D204CE010596BE016F5E8A
:100470007F4F0E94D2049985923088F0898982301A
:10048000C8F0943019F4823051F404C0843029F457
:10049000923081F480E690E0C6C0923049F420E0CA
:1004A0009A858A89981321E02A87CE010996BBC0D4
:1004B000823049F420E09A858A89981321E02A8BBA
:1004C000CE014196B0C02D843E844F8458886D88FB
:1004D0007E888F88988CEE24FF248701AA24BB2471
:1004E000650140E050E060E070E0E0E0F0E0C10174
:1004F00081709070892BE9F0E60CF71C081D191D1E
:100500009A01AB012A0D3B1D4C1D5D1D80E090E062
:10051000A0E0B0E0E614F7040805190520F481E036
:1005200090E0A0E0B0E0BA01A901480F591F6A1F8E
:100530007B1FAA0CBB1CCC1CDD1C97FE08C081E0F5
:1005400090E0A0E0B0E0A82AB92ACA2ADB2A3196B6
:10055000E032F10549F0660C771C881C991C569412
:10056000479437942794C3CFFA85EA892B893C892D
:100570008B859C85280F391F2E5F3F4F17C0CA01FE
:1005800081709070892B61F016950795F794E79428
:1005900080E090E0A0E0B0E8E82AF92A0A2B1B2BC3
:1005A00076956795579547952F5F3F4F77FDE7CF36
:1005B0000CC0440F551F661F771F17FD4160EE0CDE
:1005C000FF1C001F111F21503040403090E05907A0
:1005D00090E0690790E4790760F32B8F3C8FDB0193
:1005E000CA018F779070A070B07080349105A1051A
:1005F000B10561F447FD0AC0E114F10401051105DC
:1006000029F0405C5F4F6F4F7F4F40781A8EFE1786
:1006100011F081E08A8F4D8F5E8F6F8F78A383E01A
:10062000898FCE0149960E94FD03A096E2E10C94C9
:10063000041AA8E1B0E0EFE1F3E00C94F419698347
:100640007A838B839C832D833E834F83588789E0F5
:10065000E82EF12CEC0EFD1ECE010196B7010E9492
:10066000D2048E010F5E1F4FCE010596B8010E9485
:10067000D2048985823040F08989823028F0C70110
:10068000B8010E944A0501C08FEF6896E6E00C941D
:10069000101AA8E1B0E0EFE4F3E00C94F4196983D8
:1006A0007A838B839C832D833E834F83588789E095
:1006B000E82EF12CEC0EFD1ECE010196B7010E9432
:1006C000D2048E010F5E1F4FCE010596B8010E9425
:1006D000D2048985823040F08989823028F0C701B0
:1006E000B8010E944A0501C08FEF6896E6E00C94BD
:1006F000101AA8E1B0E0EFE7F3E00C94F419698375
:100700007A838B839C832D833E834F83588789E034
:10071000E82EF12CEC0EFD1ECE010196B7010E94D1
:10072000D2048E010F5E1F4FCE010596B8010E94C4
:10073000D2048985823040F08989823028F0C7014F
:10074000B8010E944A0501C081E06896E6E00C9479
:10075000101AACE0B0E0EFEAF3E00C94F81969830A
:100760007A838B839C83CE010196BE016B5F7F4FA2
:100770000E94D2048D81823061F1823050F1843048
:1007800021F48E81882351F12EC02F81388537FDC9
:1007900020C06E812F3131051CF06623F9F023C093
:1007A0008EE190E0821B930B29853A854B855C8511
:1007B00004C056954795379527958A95D2F76623B5
:1007C000B1F050954095309521953F4F4F4F5F4F79
:1007D0000EC020E030E040E050E009C02FEF3FEFD6
:1007E0004FEF5FE704C020E030E040E050E8B9019F
:1007F000CA012C96E2E00C94141ADF92EF92FF9259
:100800000F931F93FC01E480F58006811781D1804E
:100810008081823048F480E090E0A0E1B0E0E82AF6
:10082000F92A0A2B1B2BA5C0843009F49FC0823003
:1008300021F4EE24FF24870105C0E114F104010531
:10084000110519F4E0E0F0E096C0628173819FEF3A
:10085000623879070CF05BC022E83FEF261B370BAC
:100860002A3131052CF020E030E040E050E02AC091
:10087000B801A701022E04C0769567955795479554
:100880000A94D2F781E090E0A0E0B0E004C0880FC5
:10089000991FAA1FBB1F2A95D2F70197A109B10979
:1008A0008E219F21A023B1230097A105B10521F03E
:1008B00081E090E0A0E0B0E09A01AB01282B392B59
:1008C0004A2B5B2BDA01C9018F779070A070B07052
:1008D00080349105A105B10539F427FF09C0205CDA
:1008E0003F4F4F4F5F4F04C0215C3F4F4F4F5F4F13
:1008F000E0E0F0E02030A0E03A07A0E04A07A0E402
:100900005A0710F0E1E0F0E079018A0127C0603871
:10091000710564F5FB01E158FF4FD801C7018F77DE
:100920009070A070B07080349105A105B10539F4C4
:10093000E7FE0DC080E490E0A0E0B0E004C08FE3EB
:1009400090E0A0E0B0E0E80EF91E0A1F1B1F17FFA1
:1009500005C016950795F794E794319687E01695AC
:100960000795F794E7948A95D1F705C0EE24FF2404
:100970008701EFEFF0E06E2F679566276795902F60
:100980009F77D794DD24D7948E2F8695492F462BB9
:10099000582F5D29B701CA011F910F91FF90EF9069
:1009A000DF900895FC01DB01408151812281622F9B
:1009B0006F7770E0221F2227221F9381892F880FD3
:1009C000822B282F30E0991F9927991F11969C930D
:1009D000119721153105A9F54115510561057105DD
:1009E00011F482E037C082E89FEF13969C938E93B8
:1009F00012979A01AB0167E0220F331F441F551F66
:100A00006A95D1F783E08C930DC0220F331F441FEA
:100A1000551F12968D919C911397019713969C9355
:100A20008E931297203080E0380780E0480780E4FA
:100A3000580758F314962D933D934D935C93179755
:100A400008952F3F310579F4411551056105710570
:100A500019F484E08C93089564FF03C081E08C93C3
:100A600012C01C9210C02F57304013963C932E9307
:100A7000129783E08C9387E0440F551F661F771F02
:100A80008A95D1F7706414964D935D936D937C9322
:100A9000179708951F93DC01FB019C91923008F495
:100AA00047C08081823008F443C0943051F41196DD
:100AB0001C91843099F58181682F70E0611B710968
:100AC0003FC0843021F0923031F48230B9F181811D
:100AD000882389F12DC011961C9111978230F1F075
:100AE00081811817D9F412962D913C911397828128
:100AF00093818217930794F028173907BCF0149656
:100B00008D919D910D90BC91A02D248135814681C0
:100B10005781281739074A075B0718F4112341F05A
:100B20000AC082179307A407B50740F4112319F0F0
:100B300061E070E005C06FEF7FEF02C060E070E041
:100B4000CB011F910895DF93CF93CDB7DEB76097A8
:100B50000FB6F894DEBF0FBECDBF9A838983E981BB
:100B6000FA818581282F30E0388B2F878F859889EF
:100B70008C30910509F47FC02F8538892D303105DF
:100B800024F58F8598898330910509F48CC02F85D1
:100B900038892430310564F48F859889009709F4E9
:100BA00092C02F8538892130310509F484C091C065
:100BB0008F8598898630910509F46DC02F85388915
:100BC0002830310509F45FC084C08F85988982324E
:100BD0009105C9F12F8538892332310564F48F8559
:100BE00098898031910509F43EC02F8538892931D3
:100BF000310589F16EC08F8598898736910599F006
:100C00002F8538892F3C310531F08F8598898333C2
:100C1000910589F05EC0A9E2B0E0E9E2F0E08081F0
:100C20008F6C8C9356C0A9E2B0E0E9E2F0E08081DD
:100C300087668C934EC0A9E2B0E0E9E2F0E08081E3
:100C400083638C9346C0A9E2B0E0E9E2F0E08081E2
:100C500082628C933EC0A9E2B0E0E9E2F0E08081DC
:100C600089618C9336C0A9E2B0E0E9E2F0E08081CE
:100C700080618C932EC0A9E2B0E0E9E2F0E08081CF
:100C80008C608C9326C0A9E2B0E0E9E2F0E08081BC
:100C900088608C931EC0A9E2B0E0E9E2F0E08081B8
:100CA00086608C9316C0A9E2B0E0E9E2F0E08081B2
:100CB00083608C930EC0A9E2B0E0E9E2F0E08081AD
:100CC00081608C9306C0E9E2F0E0A9E2B0E08C918B
:100CD0008083E981FA818081282F30E03E872D874B
:100CE0008D859E858038910541F12D853E85203C7E
:100CF000310541F580917900806C80937900E9811C
:100D0000FA818481282F30E03C872B878B859C8556
:100D10008038910531F02B853C852138310539F03B
:100D200011C0809179008068809379000BC0809118
:100D3000790081688093790005C08091790080688E
:100D400080937900E981FA818181282F30E03A8708
:100D5000298789859A85803A910581F029853A8588
:100D6000203B310589F089859A858038910589F481
:100D7000809179008068809379000BC08091790020
:100D8000806A8093790005C080917900806B8093A0
:100D90007900E981FA818381282F30E038872F8319
:100DA0008F81988582389105E1F02F81388523382D
:100DB000310534F48F8198858038910561F022C027
:100DC0002F8138852438310591F08F8198858638B8
:100DD000910599F017C0809179008068809379001F
:100DE00011C0809179008268809379000BC0809156
:100DF000790084688093790005C0809179008668C5
:100E000080937900E981FA818281282F30E03E8346
:100E10002D838D819E818038910531F02D813E8119
:100E20002838310539F00BC08091790080688093B3
:100E3000790005C080917900886880937900E0E4AA
:100E4000F0E0809179008083E981FA818681282F02
:100E500030E03C832B838B819C818031910591F024
:100E60002B813C8128313105A9F08B819C81883010
:100E70009105B9F4AAE2B0E0EAE2F0E0808188608E
:100E80008C930FC0AAE2B0E0EAE2F0E080818061DA
:100E90008C9307C0AAE2B0E0EAE2F0E080818861CA
:100EA0008C9360960FB6F894DEBF0FBECDBFCF9186
:100EB000DF910895DF93CF9300D0CDB7DEB78A835B
:100EC00088EC89830FC0EBE2F0E080818295869503
:100ED0008770882F90E081709070882331F4898129
:100EE000815089838981882371F7ECE2F0E08A815F
:100EF00080830F900F90CF91DF910895DF93CF9370
:100F000000D0CDB7DEB788EC89830BC0EBE2F0E010
:100F10008081881F8827881F813031F08981815026
:100F200089838981882391F7ECE2F0E080818A83CC
:100F30008A810F900F90CF91DF910895DF93CF9327
:100F4000CDB7DEB768970FB6F894DEBF0FBECDBF42
:100F50009A838983E981FA8180818370282F30E028
:100F6000388F2F8B8F89988D009739F02F89388D86
:100F70002130310509F42AC1C6C3E981FA81818192
:100F800092819E8B8D8B2D893E892115310569F0CB
:100F90008D899E898038910571F4A3E5B0E0E3E581
:100FA000F0E0808180688C9306C0E3E5F0E0A3E583
:100FB000B0E08C918083E981FA81238134813C8B7C
:100FC0002B8B8B899C8988349105A1F12B893C89D5
:100FD0002934310508F049C08B899C8980349105FA
:100FE000D9F02B893C892134310508F03EC08B892A
:100FF0009C89009731F02B893C892830310541F1DB
:1010000034C0E3E5F0E0A3E5B0E08C91808310927A
:1010100085001092840029C0A3E5B0E0E3E5F0E08C
:10102000808180648C9380E490E09093850080932D
:1010300084001BC0A3E5B0E0E3E5F0E080818864B4
:101040008C9388E490E090938500809384000DC099
:10105000A3E5B0E0E3E5F0E0808188608C9388E070
:1010600090E09093850080938400E981FA818781E4
:1010700090859A8B898B29893A8920313105E9F04D
:1010800089899A898131910530F429893A89211514
:10109000310561F029C089899A8980329105A9F0CA
:1010A00029893A8920333105C1F01EC0E3E5F0E01B
:1010B000A3E5B0E08C91808317C0A3E5B0E0E3E541
:1010C000F0E0808180618C930FC0A3E5B0E0E3E5A0
:1010D000F0E0808180628C9307C0A3E5B0E0E3E597
:1010E000F0E0808180638C93E981FA81858196812B
:1010F000988B8F872F8538892230310579F18F853C
:1011000098898330910558F42F8538892115310548
:10111000B1F08F85988981309105C1F0F4C22F8597
:10112000388924303105B1F18F8598898430910553
:1011300018F12F85388925303105D1F1E4C2E3E576
:10114000F0E0A3E5B0E08C918083DDC2A3E5B0E0E0
:10115000E3E5F0E0808181608C93D5C2A3E5B0E047
:10116000E3E5F0E0808182608C9388E090E09093EA
:101170007B0080937A00C7C2A3E5B0E0E3E5F0E02E
:10118000808183608C9380E490E090937B008093D7
:101190007A00B9C2A3E5B0E0E3E5F0E080818460C5
:1011A0008C9380E890E090937B0080937A00ABC2B0
:1011B000A3E5B0E0E3E5F0E0808185608C9380E01A
:1011C00094E090937B0080937A009DC2E981FA813C
:1011D000818192819E878D872D853E8521153105E0
:1011E00061F18D859E858130910509F04AC0E981C4
:1011F000FA81218532853C872B878B859C850097DA
:1012000031F02B853C852130310561F03AC0AEE4E8
:10121000B0E0EEE4F0E080819181946011969C93BF
:101220008E932FC0AEE4B0E0EEE4F0E080819181D7
:10123000986011969C938E9324C0E981FA818185F0
:1012400092859A87898729853A852115310531F05C
:1012500089859A858130910559F013C0EEE4F0E05C
:10126000AEE4B0E08D919C9111979183808309C089
:10127000EEE4F0E0AEE4B0E08D919C9111979183A3
:101280008083E981FA812381348138872F838F819C
:10129000988522E08030920709F484C08F81988578
:1012A00022E08130920768F58F8198858831910519
:1012B00009F405C12F8138852931310560F48F810A
:1012C0009885009709F44FC02F8138852830310563
:1012D00009F48AC028C18F81988521E0883092075F
:1012E00009F493C08F81988521E08831920709F431
:1012F000F7C08F81988521E08030920709F441C0C2
:1013000012C18F81988523E08030920709F45BC079
:101310008F81988523E08130920778F48F819885BA
:1013200022E08830920709F482C08F81988522E0FC
:101330008031920709F49FC0F6C08F81988523E021
:101340008031920709F4A9C08F81988523E0883104
:10135000920709F4D7C08F81988523E088309207DF
:1013600009F477C0E0C0EEE4F0E0AEE4B0E08D91C7
:101370009C91119791838083109285001092840034
:10138000D2C0AEE4B0E0EEE4F0E080819181916003
:1013900011969C938E9380E091E0909385008093CA
:1013A0008400C1C0AEE4B0E0EEE4F0E08081918161
:1013B000926011969C938E9380E092E090938500CA
:1013C00080938400B0C0AEE4B0E0EEE4F0E0808151
:1013D0009181936011969C938E9380E093E090931B
:1013E0008500809384009FC0AEE4B0E0EEE4F0E0BE
:1013F00080819181886011969C938E9388E090E023
:1014000090938500809384008EC0AEE4B0E0EEE45B
:10141000F0E0808191818860916011969C938E9319
:1014200088E091E090938500809384007CC0AEE4D6
:10143000B0E0EEE4F0E080819181886092601196E6
:101440009C938E9388E092E0909385008093840033
:101450006AC0AEE4B0E0EEE4F0E0808191818860A3
:10146000936011969C938E9388E093E0909385000F
:101470008093840058C0AEE4B0E0EEE4F0E08081F8
:1014800091818061926011969C938E9380E192E0AD
:10149000909385008093840046C0AEE4B0E0EEE413
:1014A000F0E0808191818061936011969C938E938E
:1014B00080E193E0909385008093840034C0AEE493
:1014C000B0E0EEE4F0E080819181886111969C9318
:1014D0008E9388E190E0909385008093840023C0F0
:1014E000AEE4B0E0EEE4F0E080819181886191604B
:1014F00011969C938E9388E191E090938500809360
:10150000840011C0AEE4B0E0EEE4F0E080819181AF
:101510008861936011969C938E9388E193E09093F9
:10152000850080938400E981FA81878190859E837C
:101530008D832D813E8180E32030380709F44DC032
:101540002D813E8180E32130380790F42D813E814A
:1015500080E12030380759F12D813E8180E2203032
:10156000380781F12D813E8121153105B1F060C030
:101570008D819E8120E88030920709F444C08D81DE
:101580009E8120EC8030920709F448C08D819E81B5
:1015900020E48030920761F14BC0EEE4F0E0AEE46D
:1015A000B0E08D919C9111979183808341C0AEE40E
:1015B000B0E0EEE4F0E080819181906111969C931F
:1015C0008E9336C0AEE4B0E0EEE4F0E0808191812D
:1015D000906211969C938E932BC0AEE4B0E0EEE443
:1015E000F0E080819181906311969C938E9320C04E
:1015F000AEE4B0E0EEE4F0E0808191819064119679
:101600009C938E9315C0AEE4B0E0EEE4F0E08081F0
:101610009181906811969C938E930AC0AEE4B0E0DD
:10162000EEE4F0E080819181906C11969C938E9312
:10163000E981FA81858196819C838B832B813C8112
:1016400022303105A9F18B819C818330910558F4BA
:101650002B813C8121153105B1F08B819C8181303A
:101660009105D9F050C02B813C8124303105B1F176
:101670008B819C818430910530F12B813C81253018
:101680003105B9F140C0EEE4F0E0AEE4B0E08D9198
:101690009C9111979183808336C0AEE4B0E0EEE474
:1016A000F0E080819181816011969C938E932BC094
:1016B000AEE4B0E0EEE4F0E08081918182601196CA
:1016C0009C938E9320C0AEE4B0E0EEE4F0E0808125
:1016D0009181836011969C938E9315C0AEE4B0E027
:1016E000EEE4F0E080819181846011969C938E936A
:1016F0000AC0AEE4B0E0EEE4F0E080819181856064
:1017000011969C938E9368960FB6F894DEBF0FBE29
:10171000CDBFCF91DF910895DF93CF93CDB7DEB7E3
:1017200028970FB6F894DEBF0FBECDBF9A8389838A
:101730007C836B83E981FA8180818370282F30E07C
:1017400038872F838F819885009731F02F813885D6
:101750002130310531F046C0ECE5F0E08B8180832B
:1017600041C0E981FA81878190859E838D832D8197
:101770003E8180E320303807D1F02D813E8180E327
:101780002130380738F42D813E8180E2203038073F
:10179000A9F028C02D813E8180E820303807E1F093
:1017A0002D813E8180EC2030380779F01BC0E8E4C1
:1017B000F0E08B819C819183808314C0E8E4F0E0A9
:1017C0008B819C81918380830DC0EAE4F0E08B8162
:1017D0009C819183808306C0EAE4F0E08B819C8148
:1017E0009183808328960FB6F894DEBF0FBECDBFDD
:1017F000CF91DF910895DF93CF93CDB7DEB72C97CC
:101800000FB6F894DEBF0FBECDBF9A838983E981FE
:10181000FA818081282F30E03C872B878B859C853F
:10182000009709F44DC02B853C852031310509F026
:101830004DC0ADE2B0E0EDE2F0E0808180618C93DC
:10184000E981FA818381282F30E03A8729878985C9
:101850009A8581309105E1F029853A85223031055C
:101860002CF489859A85009761F030C029853A85E6
:1018700022303105A9F089859A8583309105C1F020
:1018800025C0EDE2F0E0ADE2B0E08C9180831EC0B7
:10189000ADE2B0E0EDE2F0E0808181608C9316C0B3
:1018A000ADE2B0E0EDE2F0E0808182608C930EC0AA
:1018B000ADE2B0E0EDE2F0E0808183608C9306C0A1
:1018C000EDE2F0E0ADE2B0E08C918083E981FA8155
:1018D0008281282F30E038872F838F819885009769
:1018E00031F02F8138852430310541F00EC0EDE212
:1018F000F0E0ADE2B0E08C91808307C0ADE2B0E0F3
:10190000EDE2F0E0808184608C93E981FA8181814D
:10191000282F30E03E832D838D819E81009731F00A
:101920002D813E812830310541F00EC0EDE2F0E01E
:10193000ADE2B0E08C91808307C0ADE2B0E0EDE2B3
:10194000F0E0808188608C93E981FA818581282F7D
:1019500030E03C832B838B819C81009769F02B8145
:101960003C812032310571F4ADE2B0E0EDE2F0E00F
:10197000808180628C9306C0EDE2F0E0ADE2B0E0E1
:101980008C918083ADE2B0E0EDE2F0E08081806494
:101990008C932C960FB6F894DEBF0FBECDBFCF91BF
:1019A000DF910895DF93CF9300D00F92CDB7DEB7CC
:1019B0008A83EFE2F0E08A81808388EC898303C028
:1019C000898181508983EEE2F0E0808188231CF0D8
:1019D00089818823A9F78981882331F0EFE2F0E03B
:1019E00080818B838B8100C00F900F900F90CF91DF
:1019F000DF910895DF93CF93CDB7DEB7AFE5B0E0C9
:101A0000EFE5F0E0808180688C93CF91DF910895BD
:101A1000DF93CF93CDB7DEB7AFE5B0E0EFE5F0E011
:101A200080818F778C93CF91DF910895DF93CF934F
:101A3000CDB7DEB72E970FB6F894DEBF0FBECDBF81
:101A40009A8389830E94FA0CE981FA8180818370EC
:101A5000282F30E03E872D878D859E85813091052A
:101A600079F02D853E852230310581F08D859E856A
:101A7000009789F483E062E040E00E94C60F0BC04B
:101A800083E063E040E00E94C60F05C081E062E0B1
:101A900040E00E94C60FE981FA8180818370282F7F
:101AA00030E03C872B878B859C858130910509F43C
:101AB0006BC02B853C852230310509F4C5C08B8570
:101AC0009C85009709F0E3C0E981FA8180818695C1
:101AD00086958370282F30E03A87298789859A85F3
:101AE0008130910521F129853A85223031052CF488
:101AF00089859A85009761F0CAC029853A85223088
:101B0000310521F189859A858330910571F1BFC036
:101B1000A5E5B0E0E5E5F0E0808182608C93A5E585
:101B2000B0E0E5E5F0E0808181608C93B0C0A5E590
:101B3000B0E0E5E5F0E0808182608C93A5E5B0E05F
:101B4000E5E5F0E080818E7F8C93A1C0A5E5B0E053
:101B5000E5E5F0E080818D7F8C93A5E5B0E0E5E5DB
:101B6000F0E0808181608C9392C0A5E5B0E0E5E56E
:101B7000F0E0808182608C93A5E5B0E0E5E5F0E0DF
:101B8000808181608C9383C0E981FA818081869510
:101B900086958370282F30E038872F838F81988532
:101BA0008130910521F12F813885223031052CF4C7
:101BB0008F819885009761F06AC02F813885223027
:101BC000310521F18F8198858330910571F15FC0D6
:101BD000A5E5B0E0E5E5F0E0808188608C93A5E5BF
:101BE000B0E0E5E5F0E0808184608C9350C0A5E52D
:101BF000B0E0E5E5F0E0808188608C93A5E5B0E099
:101C0000E5E5F0E080818B7F8C9341C0A5E5B0E0F5
:101C1000E5E5F0E08081877F8C93A5E5B0E0E5E520
:101C2000F0E0808184608C9332C0A5E5B0E0E5E50A
:101C3000F0E0808188608C93A5E5B0E0E5E5F0E018
:101C4000808184608C9323C0E981FA8180818695AC
:101C500086958370282F30E03E832D838D819E8171
:101C6000009731F02D813E812130310549F00FC0C0
:101C7000A4E5B0E0E4E5F0E0808180648C9307C0E7
:101C8000A4E5B0E0E4E5F0E080818F7B8C93E9810E
:101C9000FA8180818370282F30E03C832B838B81F5
:101CA0009C818130910589F02B813C812230310566
:101CB000A1F08B819C810097B9F4ABE5B0E0EBE536
:101CC000F0E0808180648C930FC0ABE5B0E0EBE581
:101CD000F0E0808180688C9307C0ABE5B0E0EBE575
:101CE000F0E0808180628C932E960FB6F894DEBF70
:101CF0000FBECDBFCF91DF910895DF93CF9300D07A
:101D000000D0CDB7DEB79A838983E981FA818081DB
:101D10008370282F30E03C832B838B819C81813022
:101D2000910589F02B813C8122303105A1F08B8116
:101D30009C810097B9F4ABE5B0E0EBE5F0E0808181
:101D40008F7B8C930FC0ABE5B0E0EBE5F0E08081DA
:101D50008F778C9307C0ABE5B0E0EBE5F0E08081D6
:101D60008F7D8C930F900F900F900F90CF91DF91FC
:101D70000895DF93CF93CDB7DEB728970FB6F894C9
:101D8000DEBF0FBECDBF8A836B834C8319828A81ED
:101D9000843008F0EFC08B81883008F0EBC08C8174
:101DA000813009F06FC08A81282F30E038872F8377
:101DB0008F8198858130910549F12F8138852230B6
:101DC00031052CF48F819885009761F0D5C02F8163
:101DD00038852230310571F18F81988583309105E6
:101DE000E9F1CAC0ABE3B0E0EBE3F0E08081482F5B
:101DF0008B81282F30E081E090E0022E02C0880F16
:101E0000991F0A94E2F7842B8C93B6C0A8E3B0E044
:101E1000E8E3F0E08081482F8B81282F30E081E0DB
:101E200090E0022E02C0880F991F0A94E2F7842BDB
:101E30008C93A2C0A5E3B0E0E5E3F0E08081482FF9
:101E40008B81282F30E081E090E0022E02C0880FC5
:101E5000991F0A94E2F7842B8C938EC0A2E3B0E022
:101E6000E2E3F0E08081482F8B81282F30E081E091
:101E700090E0022E02C0880F991F0A94E2F7842B8B
:101E80008C937AC08C81882309F076C08A81282FB0
:101E900030E03E832D838D819E818130910559F103
:101EA0002D813E81223031052CF48D819E81009759
:101EB00069F062C02D813E812230310589F18D812A
:101EC0009E818330910509F440C056C0ABE3B0E079
:101ED000EBE3F0E08081482F8B81282F30E081E018
:101EE00090E0022E02C0880F991F0A94E2F78095B5
:101EF00084238C9341C0A8E3B0E0E8E3F0E0808164
:101F0000482F8B81282F30E081E090E0022E02C024
:101F1000880F991F0A94E2F7809584238C932CC034
:101F2000A5E3B0E0E5E3F0E08081482F8B81282F26
:101F300030E081E090E0022E02C0880F991F0A94E1
:101F4000E2F7809584238C9317C0A2E3B0E0E2E32C
:101F5000F0E08081482F8B81282F30E081E090E0F5
:101F6000022E02C0880F991F0A94E2F780958423FD
:101F70008C9302C081E08983898128960FB6F894FA
:101F8000DEBF0FBECDBFCF91DF910895DF93CF931A
:101F9000CDB7DEB728970FB6F894DEBF0FBECDBF22
:101FA0008A836B834C8319828A81843008F0EFC066
:101FB0008B81883008F0EBC08C81813009F06FC0D4
:101FC0008A81282F30E038872F838F819885813050
:101FD000910549F12F813885223031052CF48F810C
:101FE0009885009761F0D5C02F8138852230310562
:101FF00071F18F81988583309105E9F1CAC0AAE318
:10200000B0E0EAE3F0E08081482F8B81282F30E0B8
:1020100081E090E0022E02C0880F991F0A94E2F737
:10202000842B8C93B6C0A7E3B0E0E7E3F0E08081B7
:10203000482F8B81282F30E081E090E0022E02C0F3
:10204000880F991F0A94E2F7842B8C93A2C0A4E313
:10205000B0E0E4E3F0E08081482F8B81282F30E06E
:1020600081E090E0022E02C0880F991F0A94E2F7E7
:10207000842B8C938EC0A1E3B0E0E1E3F0E080819B
:10208000482F8B81282F30E081E090E0022E02C0A3
:10209000880F991F0A94E2F7842B8C937AC08C8165
:1020A000882309F076C08A81282F30E03E832D8373
:1020B0008D819E818130910559F12D813E812230A3
:1020C00031052CF48D819E81009769F062C02D81CD
:1020D0003E812230310589F18D819E8183309105C9
:1020E00009F440C056C0AAE3B0E0EAE3F0E0808122
:1020F000482F8B81282F30E081E090E0022E02C033
:10210000880F991F0A94E2F7809584238C9341C02D
:10211000A7E3B0E0E7E3F0E08081482F8B81282F30
:1021200030E081E090E0022E02C0880F991F0A94EF
:10213000E2F7809584238C932CC0A4E3B0E0E4E321
:10214000F0E08081482F8B81282F30E081E090E003
:10215000022E02C0880F991F0A94E2F7809584230B
:102160008C9317C0A1E3B0E0E1E3F0E08081482F59
:102170008B81282F30E081E090E0022E02C0880F92
:10218000991F0A94E2F7809584238C9302C081E022
:102190008983898128960FB6F894DEBF0FBECDBF24
:1021A000CF91DF910895DF93CF93CDB7DEB7279717
:1021B0000FB6F894DEBF0FBECDBF8A836B835D83FD
:1021C0004C8319828A81843008F075C08B818830F5
:1021D00008F071C08A81282F30E03F832E834E8122
:1021E0005F814130510559F18E819F818230910587
:1021F00034F42E813F812115310569F05EC04E8196
:102200005F814230510579F18E819F818330910544
:1022100009F43DC052C0E9E3F0E08081282F30E0AE
:102220008B81882F90E0A90102C0559547958A952A
:10223000E2F7CA018170EC81FD8180833EC0E6E354
:10224000F0E08081282F30E08B81882F90E0A90179
:1022500002C0559547958A95E2F7CA018170EC81D5
:10226000FD8180832AC0E3E3F0E08081282F30E005
:102270008B81882F90E0A90102C0559547958A95DA
:10228000E2F7CA018170EC81FD81808316C0E0E332
:10229000F0E08081282F30E08B81882F90E0A90129
:1022A00002C0559547958A95E2F7CA018170EC8185
:1022B000FD81808302C081E08983898127960FB6E2
:1022C000F894DEBF0FBECDBFCF91DF910895DF93AD
:1022D000CF9300D000D00F92CDB7DEB78A836B8347
:1022E00019828A81843098F58A81282F30E03D83D5
:1022F0002C838C819D8181309105D1F02C813D8191
:10230000223031052CF48C819D81009761F021C031
:102310002C813D812230310581F08C819D8183307B
:10232000910581F016C0EAE3F0E08B81808311C053
:10233000E7E3F0E08B8180830CC0E4E3F0E08B8185
:10234000808307C0E1E3F0E08B81808302C081E0FD
:10235000898389810F900F900F900F900F90CF91EC
:10236000DF910895DF93CF9300D000D00F92CDB7C7
:10237000DEB78A836B8319828A81843098F58A81DB
:10238000282F30E03D832C838C819D818130910505
:10239000D1F02C813D81223031052CF48C819D813E
:1023A000009761F021C02C813D812230310581F000
:1023B0008C819D818330910581F016C0EBE3F0E0C4
:1023C0008B81808311C0E8E3F0E08B8180830CC0B7
:1023D000E5E3F0E08B81808307C0E2E3F0E08B81EE
:1023E000808302C081E0898389810F900F900F90D4
:1023F0000F900F90CF91DF910895DF93CF93CDB7DA
:10240000DEB7A7E2B0E0E7E2F0E0808180648C9381
:10241000A7E2B0E0E7E2F0E080818F778C93A7E25B
:10242000B0E0E7E2F0E080818F7D8C93A6E2B0E03F
:10243000E6E2F0E0808181608C93A6E2B0E0E6E223
:10244000F0E0808182608C93A6E2B0E0E6E2F0E00A
:10245000808184608C93A6E2B0E0E6E2F0E08081C7
:10246000807E8C93CF91DF910895DF93CF9300D03E
:102470000F92CDB7DEB79B838A83A6E2B0E0E6E297
:10248000F0E0808180688C93A6E2B0E0E6E2F0E0C4
:10249000808180648C9388EC898303C0898181501A
:1024A0008983E6E2F0E08081829586958695837047
:1024B000882F90E081709070982F81E08927882381
:1024C00019F48981882351F78981882341F0E4E256
:1024D000F0E080819181EA81FB81918380830F907C
:1024E0000F900F90CF91DF910895DF93CF93CDB7E9
:1024F000DEB7A6E2B0E0E6E2F0E080818F778C9371
:10250000CF91DF910895DF93CF9300D0CDB7DEB7A1
:102510009A838983E981FA81808183706FEF0E94B9
:1025200067110F900F90CF91DF910895DF93CF93B4
:1025300000D00F92CDB7DEB79A8389836B83E98190
:10254000FA8180818470882341F0E981FA81808159
:1025500083706B810E94B21112C0E981FA8180817F
:102560008470882361F4E981FA8180818370282F47
:102570008B81982F9095822F692F0E94B2110F9016
:102580000F900F90CF91DF910895DF93CF9300D0FC
:10259000CDB7DEB79A838983E981FA818081837020
:1025A0006FE00E946711E981FA818081837060E0A9
:1025B0000E94B2110F900F90CF91DF910895DF9399
:1025C000CF93CDB7DEB7A8970FB6F894DEBF0FBE96
:1025D000CDBF9F8F8E8F68A349A32AA31D8E89A18B
:1025E000282F30E038A72FA38FA198A5009709F4D2
:1025F000A1C02FA138A52130310509F035C11D8EAC
:1026000093C088A1282F30E03EA32DA38DA19EA1C9
:10261000009751F02DA13EA12130310549F480E011
:1026200061E00E94B21104C080E068E00E94B21133
:1026300080E090E0A0EAB0E4898F9A8FAB8FBC8FE6
:10264000698D7A8D8B8D9C8D20E030E04AEF54E4CB
:102650000E941F02DC01CB018D8B9E8BAF8BB88F4C
:102660006D897E898F89988D20E030E040E85FE3B6
:102670000E94790388232CF481E090E09C8B8B8B63
:102680003FC06D897E898F89988D20E03FEF4FE7AD
:1026900057E40E94190318164CF5698D7A8D8B8DBD
:1026A0009C8D20E030E040E251E40E941F02DC01FA
:1026B000CB01BC01CD010E944900DC01CB019C8B08
:1026C0008B8B0FC088EC90E09A8B898B89899A89D3
:1026D0000197F1F79A8B898B8B899C8901979C8B49
:1026E0008B8B8B899C89009769F714C06D897E89D3
:1026F0008F89988D0E944900DC01CB019C8B8B8BCC
:102700008B899C89988B8F878F8598890197F1F7A2
:10271000988B8F87EE8DFF8D8081837060E00E94A3
:10272000B2118D8D8F5F8D8F9D8D8AA1981708F4C2
:1027300068CF9AC01D8E93C088A1282F30E03CA39B
:102740002BA38BA19CA1009751F02BA13CA1213080
:10275000310549F480E063E00E94B21104C080E0DA
:102760006CE00E94B21180E090E0A0EAB0E48B87B8
:102770009C87AD87BE876B857C858D859E8520E097
:1027800030E04AEF54E40E941F02DC01CB018F834A
:102790009887A987BA876F81788589859A8520E08F
:1027A00030E040E85FE30E94790388232CF481E065
:1027B00090E09E838D833FC06F81788589859A855F
:1027C00020E03FEF4FE757E40E94190318164CF53D
:1027D0006B857C858D859E8520E030E040E251E46C
:1027E0000E941F02DC01CB01BC01CD010E94490007
:1027F000DC01CB019E838D830FC088EC90E09C832D
:102800008B838B819C810197F1F79C838B838D81D6
:102810009E8101979E838D838D819E81009769F7AC
:1028200014C06F81788589859A850E944900DC01F2
:10283000CB019E838D838D819E819A83898389813B
:102840009A810197F1F79A838983EE8DFF8D8081BC
:10285000837060E00E94B2118D8D8F5F8D8F9D8D92
:102860008AA1981708F468CFA8960FB6F894DEBF2F
:102870000FBECDBFCF91DF910895DF93CF9300D0EE
:10288000CDB7DEB79A838983E981FA81818183702C
:10289000E981FA819081692F41E00E94C60F0F9073
:1028A0000F90CF91DF910895DF93CF9300D0CDB7F4
:1028B000DEB79A838983E981FA81818184708823D4
:1028C00089F0E981FA81818188608183E981FA81D7
:1028D00081818370E981FA819081692F41E00E94B2
:1028E000B90E16C0E981FA8181818470882381F450
:1028F000E981FA818181877F8183E981FA81818100
:102900008370E981FA819081692F40E00E94B90EBD
:102910000F900F90CF91DF910895DF93CF9300D068
:10292000CDB7DEB79A838983E981FA81818184708A
:10293000882389F0E981FA818181877F8183E98118
:10294000FA8181818370E981FA819081692F40E069
:102950000E94B90E16C0E981FA81818184708823B2
:1029600081F4E981FA81818188608183E981FA813A
:1029700081818370E981FA819081692F41E00E9411
:10298000B90E0F900F90CF91DF910895DF93CF9301
:1029900000D0CDB7DEB79A838983E981FA8181813E
:1029A0008470882379F1E981FA8181818870882394
:1029B00089F4E981FA8181818370E981FA819081CA
:1029C000692F41E00E94B90EE981FA818181886016
:1029D00081834BC0E981FA8181818870882309F461
:1029E00044C0E981FA8181818370E981FA81908113
:1029F000692F40E00E94B90EE981FA818181877FC9
:102A0000818333C0E981FA8181818470882369F5EB
:102A1000E981FA8181818870882389F0E981FA81CE
:102A200081818370E981FA819081692F40E00E9461
:102A3000B90EE981FA818181877F818316C0E9819E
:102A4000FA8181818870882381F4E981FA8181810A
:102A50008370E981FA819081692F41E00E94B90E6B
:102A6000E981FA818181886081830F900F90CF91F5
:102A7000DF910895DF93CF93CDB7DEB760970FB6A0
:102A8000F894DEBF0FBECDBF988B8F87EF85F88996
:102A90008181EF85F8899481692F41E00E94B90E08
:102AA00080E090E0A0E0B0E48B879C87AD87BE8794
:102AB0006B857C858D859E8520E030E04AEF54E46F
:102AC0000E941F02DC01CB018F839887A987BA87F8
:102AD0006F81788589859A8520E030E040E85FE362
:102AE0000E94790388232CF481E090E09E838D83FB
:102AF0003FC06F81788589859A8520E03FEF4FE759
:102B000057E40E94190318164CF56B857C858D855A
:102B10009E8520E030E040E251E40E941F02DC018B
:102B2000CB01BC01CD010E944900DC01CB019E8399
:102B30008D830FC088EC90E09C838B838B819C817C
:102B40000197F1F79C838B838D819E8101979E83F2
:102B50008D838D819E81009769F714C06F81788580
:102B600089859A850E944900DC01CB019E838D8373
:102B70008D819E819A83898389819A810197F1F75A
:102B80009A838983EF85F8898181EF85F88994811B
:102B9000692F40E00E94B90E60960FB6F894DEBF30
:102BA0000FBECDBFCF91DF910895DF93CF9300D0BB
:102BB0000F92CDB7DEB79A8389836B83E981FA815F
:102BC0008181E981FA819281692F40E00E94B90EEA
:102BD000E981FA8180816B810E94B21189819A8199
:102BE0000E943A150F900F900F90CF91DF910895AA
:102BF000DF93CF9300D00F92CDB7DEB79A8389834E
:102C00006B83E981FA818181E981FA819281692F5F
:102C100041E00E94B90EE981FA8180816B810E94B6
:102C2000B21189819A810E943A150F900F900F90EE
:102C3000CF91DF910895DF93CF93CDB7DEB7AC97F7
:102C40000FB6F894DEBF0FBECDBF9CA78BA7EBA538
:102C5000FCA58181EBA5FCA59481692F41E00E9430
:102C6000C60FEBA5FCA58181EBA5FCA59281692F80
:102C700041E00E94C60FEBA5FCA58181EBA5FCA558
:102C80009381692F41E00E94C60FEBA5FCA58181CD
:102C9000EBA5FCA59381692F40E00E94B90EEBA53E
:102CA000FCA580816FEF0E94671180E090E0A0EFAB
:102CB000B1E48FA398A7A9A7BAA76FA178A589A502
:102CC0009AA520E030E04AEF54E40E941F02DC01A4
:102CD000CB018BA39CA3ADA3BEA36BA17CA18DA1B3
:102CE0009EA120E030E040E85FE30E947903882362
:102CF0002CF481E090E09AA389A33FC06BA17CA152
:102D00008DA19EA120E03FEF4FE757E40E941903F9
:102D100018164CF56FA178A589A59AA520E030E09A
:102D200040E251E40E941F02DC01CB01BC01CD0155
:102D30000E944900DC01CB019AA389A30FC088EC53
:102D400090E098A38F8F8F8D98A10197F1F798A3AA
:102D50008F8F89A19AA101979AA389A389A19AA18A
:102D6000009769F714C06BA17CA18DA19EA10E9460
:102D70004900DC01CB019AA389A389A19AA19E8F66
:102D80008D8F8D8D9E8D0197F1F79E8F8D8F8BA5E9
:102D90009CA568E30E94D51580E090E0A0E8BFE321
:102DA000898F9A8FAB8FBC8F698D7A8D8B8D9C8D1F
:102DB00020E030E04AEF54E40E941F02DC01CB0126
:102DC0008D8B9E8BAF8BB88F6D897E898F89988D07
:102DD00020E030E040E85FE30E94790388232CF490
:102DE00081E090E09C8B8B8B3FC06D897E898F89C1
:102DF000988D20E03FEF4FE757E40E941903181623
:102E00004CF5698D7A8D8B8D9C8D20E030E040E211
:102E100051E40E941F02DC01CB01BC01CD010E94E4
:102E20004900DC01CB019C8B8B8B0FC088EC90E0C0
:102E30009A8B898B89899A890197F1F79A8B898B6B
:102E40008B899C8901979C8B8B8B8B899C890097A4
:102E500069F714C06D897E898F89988D0E94490019
:102E6000DC01CB019C8B8B8B8B899C89988B8F870A
:102E70008F8598890197F1F7988B8F878BA59CA5F3
:102E80006CE00E94D51580E090E0A0E8BFE38B875E
:102E90009C87AD87BE876B857C858D859E8520E070
:102EA00030E04AEF54E40E941F02DC01CB018F8323
:102EB0009887A987BA876F81788589859A8520E068
:102EC00030E040E85FE30E94790388232CF481E03E
:102ED00090E09E838D833FC06F81788589859A8538
:102EE00020E03FEF4FE757E40E94190318164CF516
:102EF0006B857C858D859E8520E030E040E251E445
:102F00000E941F02DC01CB01BC01CD010E944900DF
:102F1000DC01CB019E838D830FC088EC90E09C8305
:102F20008B838B819C810197F1F79C838B838D81AF
:102F30009E8101979E838D838D819E81009769F785
:102F400014C06F81788589859A850E944900DC01CB
:102F5000CB019E838D838D819E819A838983898114
:102F60009A810197F1F79A8389838BA59CA561E0EB
:102F70000E94D515AC960FB6F894DEBF0FBECDBF3C
:102F8000CF91DF910895DF93CF9300D0CDB7DEB717
:102F90009A83898389819A8161E00E94D5150F9077
:102FA0000F90CF91DF910895DF93CF9300D000D0A1
:102FB000CDB7DEB79A8389837C836B83EB81FC81F9
:102FC000208189819A81622F0E94F8150F900F90BD
:102FD0000F900F90CF91DF910895DF93CF9300D0A2
:102FE00000D00F92CDB7DEB79B838A837D836C833D
:102FF000198211C08981282F30E08C819D81FC01CC
:10300000E20FF31F20818A819B81622F0E94F815B5
:1030100089818F5F89838981282F30E08C819D8110
:10302000FC01E20FF31F8081882321F70F900F909E
:103030000F900F900F90CF91DF910895DF93CF9372
:10304000CDB7DEB72E970FB6F894DEBF0FBECDBF5B
:103050009D878C876E878E858A3048F48E85282FD1
:10306000205D8C859D85622F0E94F81549C089E0FE
:1030700089838981482F50E08E859AE0692F0E94CC
:10308000DC19892F282FCE010296FC01E40FF51FD1
:1030900020838981815089838E859AE0692F0E94DF
:1030A000DC198E878E85823020F78981882F90E009
:1030B0009C012F5F3F4FCE010296FC01E20FF31FF0
:1030C0008081882319F489818F5F898389818F5F4B
:1030D000898313C08981282F30E0CE010296FC013C
:1030E000E20FF31F8081282F205D8C859D85622F44
:1030F0000E94F81589818F5F898389818A3050F316
:103100002E960FB6F894DEBF0FBECDBFCF91DF91E4
:103110000895DF93CF9300D000D000D0CDB7DEB7B5
:103120009A8389836B834C838B81282F30E03E8385
:103130002D838D819E81009731F02D813E8121303C
:10314000310551F011C08C81282F205889819A8136
:10315000622F0E94D51508C08C81282F20548981A8
:103160009A81622F0E94D51526960FB6F894DEBF7D
:103170000FBECDBFCF91DF910895DF93CF9300D0E5
:10318000CDB7DEB79A838983E981FA8180816FE0C8
:103190000E946711E981FA8180816FEF0E94B2116C
:1031A0000F900F90CF91DF910895DF93CF93CDB71C
:1031B000DEB727970FB6F894DEBF0FBECDBF9E8354
:1031C0008D8381E08C838FEF8B831A8257C0ED81D2
:1031D000FE8180816A8140E00E94B90E198240C060
:1031E000ED81FE8140818981982F9C5F9E012C5F3B
:1031F0003F4F842F692FA9010E94D3108C8188230F
:1032000061F50EC0ED81FE8140818981982F9C5F20
:103210009E012C5F3F4F842F692FA9010E94D3107C
:103220008C81882379F3ED81FE8180816A8141E080
:103230000E94B90E8A81482F50E08981282F30E002
:10324000CA01880F991F880F991F820F931FFC01D5
:10325000E859FF4F80818F8317C089818F5F8983F1
:103260008981843008F4BCCFED81FE8180816A8140
:1032700041E00E94B90E8A818F5F8A838A818430FF
:1032800008F4A5CF8B818F838F8127960FB6F89492
:10329000DEBF0FBECDBFCF91DF910895DF93CF93F7
:1032A00000D0CDB7DEB79A838983E981FA81818125
:1032B0008370E981FA819081692F40E00E94C60FF6
:1032C000E981FA8181818370E981FA819081692F96
:1032D00041E00E94B90E0F900F90CF91DF910895B9
:1032E000DF93CF9300D000D0CDB7DEB79C838B8324
:1032F000198215C0EB81FC8181818370EB81FC8197
:1033000090819E012E5F3F4F692FA9010E94D3102B
:103310008A81813009F4198289818F5F898389814B
:10332000873940F38A810F900F900F900F90CF91C3
:10333000DF910895DF93CF93CDB7DEB72A970FB60D
:10334000F894DEBF0FBECDBF1A828B818C7F8B833A
:103350008B8184608B838B81877F8B8387E0FE01E9
:103360003496DF01982F1D929A95E9F780E88C83B7
:1033700080E88D8380E88E8386E88F8383E3898766
:1033800088E18A87CE0102960E943D14CE01049600
:103390000E94A3050E947E0789838981813321F4DD
:1033A000CE0102960E94C6148981823399F7CE011C
:1033B00002960E94C614EECF991B79E004C0991FB3
:1033C000961708F0961B881F7A95C9F7809508957F
:1033D0002F923F924F925F926F927F928F929F9225
:1033E000AF92BF92CF92DF92EF92FF920F931F9313
:1033F000CF93DF93CDB7DEB7CA1BDB0B0FB6F894C4
:10340000DEBF0FBECDBF09942A88398848885F8403
:103410006E847D848C849B84AA84B984C884DF8074
:10342000EE80FD800C811B81AA81B981CE0FD11D58
:103430000FB6F894DEBF0FBECDBFED010895F8942E
:02344000FFCFBC
:1034420000000000000000000708092F04050678AC
:083452000102032D63003D2B74
:00000001FF
